:020000040800F2
:10000000B006002081300008893000088B300008DD
:100010008D3000088F30000891300008000000008B
:100020000000000000000000000000009330000805
:100030009530000800000000973000089930000853
:100040009B3000089B3000089B3000089B30000864
:100050009B3000089B3000089B300008950A000880
:10006000970A0008990A00089B3000089B30000896
:100070009B3000089B3000089B3000089B30000834
:100080009B3000089B3000089B3000089B30000824
:100090009B3000089B3000089B300008930A000842
:1000A0009B3000089B3000089B3000089B30000804
:1000B0009B300008910A0008E52F00089B300008DB
:1000C0009B3000089B3000089B3000089B300008E4
:1000D0009B300008732D00081F2E00089B3000087D
:1000E0009B3000089B3000089B3000089B300008C4
:1000F0009B3000089B3000089B3000089B300008B4
:100100009B3000089B3000089B3000089B300008A3
:100110009B3000089B3000089B3000089B30000893
:100120009B3000089B3000089B3000089B30000883
:10013000DFF80CD003F078FB004800470502000808
:10014000B00600201FB54FF4165000900020ADF807
:100150000400ADF80600ADF80800ADF80C000C2066
:10016000ADF80A006946454801F0DBF8012240F28B
:100170002551424801F06DF90121404801F05DF937
:1001800040213E4801F041FA1FBD08B54FF4C06060
:1001900001F016F825208DF8000000208DF80100F0
:1001A00001208DF802008DF80300684601F00DF87B
:1001B00008BD08B54FF40070ADF8000003208DF8BD
:1001C000020018208DF8030069462D4800F0D8FC85
:1001D0004FF48060ADF8000004208DF803006946FC
:1001E000274800F0CDFC08BD10B50121042000F027
:1001F00083FF0121880300F07FFF0121084600F002
:100200007BFF10BD1CB500BF00BF00BF02F0F8FCB3
:100210004FF4165002F05EFDFFF7E6FFFFF7C9FF4F
:10022000FFF7B3FFFFF78EFF02F0EAFC00F0F6F8ED
:1002300006E014A003F06CFB4FF4FA7002F01DFD11
:1002400000F0F4FA0028F4D100F0DCFB15E01449CA
:10025000144800F01CF912480CC813A002F0E6FE86
:100260000F4903C9CDE900010E480CC810A003F0E6
:100270004FFB4FF4757002F000FDE8E700380140D5
:100280000008014042543035204572726F722C20B4
:10029000706C6561736520636865636B2E00000098
:1002A0000800002000000020252E32660D0A000004
:1002B00054454D50524541545552453A25672020EA
:1002C00050524553535552453A256720200A0000A5
:1002D00000B587B0012141F2040000F00DFFE020DD
:1002E000ADF8040003208DF8060018208DF80700F3
:1002F00001A9FD4800F044FC1020ADF804000320E3
:100300008DF8060010208DF8070001A9F64800F0CE
:1003100037FC0020ADF808004FF48270ADF80A00F9
:100320000020ADF81600ADF81000ADF80E00012069
:10033000ADF818000020ADF80C004FF40070ADF8D7
:1003400012003820ADF8140002A9E84801F0D0F9F5
:100350000121E64801F071FA07B000BD70B505460D
:10036000002406E0601CC4B2C82C02DDE0A003F04B
:10037000CFFA0221DD4801F0E4FA0028F2D0294644
:10038000DA4801F08BFA002406E0601CC4B2C82CE5
:1003900002DDD7A003F0BCFA0121D44801F0D1FA64
:1003A0000028F2D0D14801F07BFAC0B270BD70B520
:1003B00000250026002400BF1BE00020CE49086075
:1003C000A02101EB4401C8B2FFF7C8FF0020FFF7EE
:1003D000C5FF05460020FFF7C1FF064646EA052097
:1003E000C64921F814000120C549C1F89001601CDC
:1003F000C4B2072CE1DB70BD10B50020BE49086017
:10040000022002F016FC1E20FFF7A8FF032002F0D6
:1004100034FC0120BA49C1F8900110BD10B5FFF7B6
:1004200057FFFFF7E9FFFFF7C2FF10BD2DE9F041CD
:100430000446002500260027A8460020AE49086093
:100440002046FFF78BFF142002F017FC0120AC4977
:10045000C1F890010020A8490860FFF77FFF002045
:10046000FFF77CFF06460020FFF778FF07460020D5
:10047000FFF774FF80460120A149C1F890013004C4
:1004800000EB072000EB08052846BDE8F0812DE9C8
:10049000F34F93B04820FFF7C9FF11905820FFF7A2
:1004A000C5FF10900022974B1046590203F040FF01
:1004B000CDE904019149488903F00DF8CDE9020125
:1004C000DDE9042302F026FFCDE90801109803F0CE
:1004D00002F8CDE90601DDE9082302F015FF064622
:1004E0000F460022884B10464FF0804103F020FF5A
:1004F000CDE904018149088902F0EDFF32463B460F
:10050000CDE9000102F006FFCDE90201DDE9042397
:1005100002F072FF00227D4BCDE9080110464FF03A
:10052000804103F005FFCDE904017449888802F099
:10053000D2FFCDE90201DDE9042302F0EBFECDE9B3
:100540000601DDE9082302F03EFECDE90E0100229E
:100550006C4B1046590203F0EBFECDE904016749EC
:10056000C88802F0B8FF32463B46CDE9000102F0F0
:10057000D1FECDE90201DDE9042302F03DFF0022B6
:10058000634BCDE9080110464FF0804103F0D0FEE7
:10059000CDE904015949488802F09DFFCDE90201E7
:1005A000DDE9042302F0B6FECDE90601DDE908230A
:1005B00002F009FECDE90C010022564B10464FF027
:1005C000804103F0B5FECDE906014C49888902F06F
:1005D00082FF32463B46CDE9020102F09BFECDE9A7
:1005E0000401DDE9062302F007FF00224A4BCDE9B2
:1005F000080102F0E8FD04460D460022464B204665
:10060000294602F089FF6ED20022444B10464FF07B
:10061000804103F08DFE32463B46CDE9080130466D
:10062000394602F077FECDE90601DDE9082302F044
:10063000E3FE804689460022374B2046294602F0D9
:1006400063FE0022344BCDE906012046294602F024
:100650005BFECDE90401DDE9062302F05BFECDE996
:10066000080102F071FF8346584602F041FF002264
:100670002B4BCDE9060102F04DFECDE9080102F059
:1006800063FF8246584602F033FF0022254BCDE936
:10069000060102F03FFECDE9080102F055FF0B9084
:1006A0000022214B2046294602F036FF69D2002263
:1006B0001E4B2046294602F086FD00221B4BCDE949
:1006C00006012046294602F07EFDCDE90401DDE960
:1006D000062302F01FFECDE9080102F035FF834634
:1006E0005946134826E046E000080140003001402A
:1006F0004552524F52210A009001214248000020E9
:10070000000021420000204000001C40000030405A
:1007100000002E400000374000409F4000003F4056
:10072000000004400000F43F007097C00070974044
:100730000000E04002F015FD51460A9002F0B9FCBD
:100740008246584602F0D4FE0022334BCDE9020126
:1007500002F0E0FDCDE906010B9802F0C9FECDE9FB
:100760000401DDE9062302F02EFDCDE9080102F0C7
:10077000EBFE0B9005E04FF00008C146C24600209A
:100780000B90504602F0B4FECDE90801DDE90E23DE
:1007900002F0BDFDCDE90E010B9802F0A9FECDE9F6
:1007A0000801DDE90C2302F0B2FDCDE90C0142465F
:1007B0004B462046294602F0A7FD0022174BCDE903
:1007C000080102F019FE139A03C2119802F083FE89
:1007D000CDE90001DDE90C2302F09CFD0022104B65
:1007E000CDE9020102F008FECDE90401DDE90E23A6
:1007F00002F08AFD00220B4BCDE9060102F0FCFD60
:100800000022094BCDE9080102F0F6FD149A03C25B
:1008100015B0BDE8F08F0000000016400000594000
:10082000000040410000E04000408F40F8B50A263B
:1008300001250121082000F05FFC0820ADF8000030
:1008400048208DF8030003208DF8020069467A489D
:1008500000F096F91020ADF800008DF80300032099
:100860008DF802006946744800F08AF91021724838
:1008700000F033FA4FF4165002F047FB4FF4FA70D1
:1008800002F0FBF932E001206C4908600A2002F016
:10089000F4F96BA002F0CAFB00206B49C1F890018B
:1008A00000240AE06948008800F4004000B106E036
:1008B000052002F0E2F9601CC4B20A2CF2DB00BF92
:1008C0006248008800F4004080B16048057800204C
:1008D0005E490880042D09D15D4800784F2805D174
:1008E0005B4840784B2801D1002504E03000A6F198
:1008F0000101CEB2C7D100BF06B901252846F8BD17
:1009000070B50F2630E001204C4908600A2002F043
:10091000B4F950A002F08AFB00250AE00A2002F098
:10092000ACF94A48008800F4004000B103E0681CBC
:10093000C5B2142DF2DB00BF0020404908604348D7
:10094000008800F4004078B14048047800203F4916
:1009500008800D2C08D13E4800782B2804D13C4853
:1009600080793038C4B204E03000A6F10101CEB283
:10097000C9D100BF06B9FF24204670BD2DE9F04162
:1009800005460F2733E001202C4908600A2002F0B9
:1009900074F9294632A002F049FB00202A49C1F827
:1009A000900100260AE02948008800F4004000B1C8
:1009B00006E0052002F061F9701CC6B2142EF2DBCD
:1009C00000BF2248008800F4004080B11F4804782E
:1009D00000201E490880042C09D11D4800784F28AA
:1009E00005D11B4840784B2801D1002404E0380091
:1009F000A7F10101CFB2C6D100BF07B9FF2420463D
:100A0000BDE8F08110B5FFF77BFF012803D116A0E8
:100A100002F07EFF02E017A002F07AFF10BD10B5D1
:100A200006488438006818B115A002F071FF02E092
:100A300015A002F06DFF10BD000C01409081214215
:100A400041540D0A00000000008021423E000020B9
:100A5000E801002041542B524F4C453F0D0A000045
:100A600025730D0A00000000D6F7BBFAC4A3CABD67
:100A700000000000B4D3BBFAC4A3CABD000000004C
:100A8000D2D1C1ACBDD30000CEB4C1ACBDD3000047
:100A900070477047704770477047000070B5044654
:100AA0000D46E1B2054800F035FD00BF8021034846
:100AB00000F09EFD0028F9D0204670BD00380140AE
:100AC00010B50446CC48844208D10121042000F02E
:100AD0002DFB0021042000F029FB46E0C74884429A
:100AE00008D10121082000F021FB0021082000F09E
:100AF0001DFB3AE0C248844208D10121102000F0D9
:100B000015FB0021102000F011FB2EE0BD488442AF
:100B100008D10121202000F009FB0021202000F055
:100B200005FB22E0B848844208D10121402000F0B2
:100B3000FDFA0021402000F0F9FA16E0B3488442A3
:100B400008D10121802000F0F1FA0021802000F07E
:100B5000EDFA0AE0AE48844207D10121801500F089
:100B6000E5FA0021A01500F0E1FA10BD10B5012151
:100B7000084600F0DBFA0021012000F0D7FA10BD92
:100B80002DE9F04102460025002600200023002424
:100B9000002791F803C00CF00F0591F803C00CF08A
:100BA000100CBCF1000F03D091F802C04CEA05050F
:100BB00091F800C0BCF1000F31D0146800202BE088
:100BC0004FF0010C0CFA00F3B1F800C00CEA030678
:100BD0009E4220D183004FF00F0C0CFA03F7BC4368
:100BE00005FA03FC4CEA040491F803C0BCF1280F99
:100BF00006D14FF0010C0CFA00FCC2F814C00AE058
:100C000091F803C0BCF1480F05D14FF0010C0CFA6C
:100C100000FCC2F810C0401C0828D1D31460B1F801
:100C200000C0BCF1FF0F34DD546800202EE000F15D
:100C3000080C4FF0010808FA0CF3B1F800C00CEAF8
:100C400003069E4221D183004FF00F0C0CFA03F7EC
:100C5000BC4305FA03FC4CEA040491F803C0BCF160
:100C6000280F05D100F1080C08FA0CF8C2F814801E
:100C700091F803C0BCF1480F07D100F1080C4FF008
:100C8000010808FA0CF8C2F81080401C0828CED3DE
:100C90005460BDE8F0814FF6FF7101800221817040
:100CA0000421C17070470246002093680B400BB1CD
:100CB000012000E0002070470146886880B270473C
:100CC00002460020D3680B400BB1012000E0002059
:100CD00070470146C86880B2704701617047416142
:100CE00070470AB1016100E041617047C16070471F
:100CF0004FF480320A438261816182618269826934
:100D0000704702460020434B18684FF68073184026
:100D100040EA021008433F4B186070473E49C861E3
:100D20007047F0B50A46002300240021002500F09A
:100D30000046B6F1004F02D1364EF16901E0354E62
:100D40007168C0F3034583B200F44016B6F5401F46
:100D500008D121F070612F4E766826F070662D4F15
:100D60007E6012E000F48016B6F5801F06D10326DF
:100D700006FA05F4A14341F0706106E0460D360124
:100D800003FA06F6B14341F0706122B1460D360117
:100D900003FA06F6314300F00046B6F1004F02D1E7
:100DA0001C4EF16101E01B4E7160F0BD30B50022B8
:100DB0008B071C0F0F2303FA04F2164B08338C1019
:100DC00053F824309343134C08348D1044F82530E5
:100DD00023468C1053F824308C07240F00FA04F4B7
:100DE00023430C4C08348D1044F8253030BD0A499B
:100DF000DC3108607047000000080140000C014031
:100E0000001001400014014000180140001C014086
:100E1000002001400000014000002042DF4800683F
:100E200040F00100DD49086008464068DC490840A0
:100E3000DA49486008460068DA490840D74908603E
:100E40000846006820F4802008600846406820F4C6
:100E5000FE0048604FF41F0088607047CF49096862
:100E600021F48031CD4A11601146096821F48021B6
:100E70001160B0F5803F03D0B0F5802F0ED106E0B1
:100E8000C649096841F48031C44A116007E0C3498A
:100E9000096841F4A021C14A116000E000BF00BF11
:100EA000704710B501460022002300204A11012A94
:100EB00002D1BA4C236806E0022A02D1B74C236A59
:100EC00001E0B64C636A01F01F02012494401C400B
:100ED0000CB1012000E0002010BD38B500200090CA
:100EE0000024002500BF3120FFF7DBFF05460098F6
:100EF000401C00900098B0F5A06F01D0002DF2D0FA
:100F00003120FFF7CEFF08B1012400E00024204685
:100F100038BD01460020A14A106820F0F80040EAE0
:100F2000C10010607047A049086070470246002069
:100F30009A4B586820F47C1042EA01031843974BFF
:100F40005860704798490866704701460020934AE8
:100F5000506820F003000843506070478F48406895
:100F600000F00C007047014600208C4A506820F0C9
:100F7000F00008435060704701460020874A5068DF
:100F800020F4E06008435060704701460020834A27
:100F9000506820F4605040EAC1005060704729B1A9
:100FA0007E4A527A02437D4B5A7204E07B4A527A5F
:100FB00082437A4B5A7270477B49D8310860704738
:100FC00001460020754A506820F4404008435060B4
:100FD00070470021714A20321170704A82F8201047
:100FE000012802D004280AD104E001216B4A2032F2
:100FF000117005E00521694A2032117000E000BF40
:1010000000BF70476949086070476449096A014335
:10101000624A11627047654944390860704730B5CB
:1010200000210022002400235C4D6D6805F00C01B6
:1010300021B1042905D0082923D105E05C4D0560C4
:1010400022E05B4D05601FE0544D6D6805F47012A1
:10105000524D6D6805F48034022505EB92421CB9AF
:10106000544D554305600BE04C4D6D6805F400355B
:101070001DB1504D5543056002E04D4D554305608F
:1010800002E04B4D056000BF00BF444D6D6805F0A8
:10109000F0010909484D6B5C0568DD4045603F4D36
:1010A0006D6805F4E061090A434D6B5C4568DD40FD
:1010B00085603A4D6D6805F46051C90A3E4D6B5C20
:1010C0004568DD40C560354D6D6805F44041890BCC
:1010D0003A4D6B5CC568B5FBF3F5056130BD29B1D0
:1010E0002E4A526902432D4B5A6104E02B4A526941
:1010F00082432A4B5A61704729B1284A92690243B8
:10110000264B9A6104E0254A92698243234B9A61F7
:10111000704729B1214AD2690243204BDA6104E0C9
:101120001E4AD26982431D4BDA61704729B11B4ABE
:10113000D2680243194BDA6004E0184AD26882434D
:10114000164BDA60704729B1144A12690243134BF7
:101150001A6104E0114A12698243104B1A61704708
:1011600012494039086070470F49C86470470B49FD
:10117000C87170470948406A40F08070074948626A
:10118000704701460020054A92680A400AB10120D2
:1011900000E000207047014988727047001002404B
:1011A0000000FFF8FFFFF6FE0000424280044242CA
:1011B00000127A0000093D001000002020000020ED
:1011C00031490143314A1160704770B50021002355
:1011D0000F22C47804B32D4C246804F4E064C4F5F1
:1011E000E064210AC1F10403CA40447804FA03F11F
:1011F0008478144021430901254C0678A1550478D0
:1012000004F01F050124AC4005786D11AD0005F117
:10121000E025C5F8004109E0047804F01F05012429
:10122000AC401C4D0678761145F8264070BD1A4A30
:101230000A400243154B1B1F1A60704739B1134A0D
:10124000121D12680243114B1B1D1A6006E00F4A63
:10125000121D126882430D4B1B1D1A607047042833
:1012600008D14FF0E021096941F004014FF0E0227C
:10127000116107E04FF0E021096921F004014FF00E
:10128000E0221161704700000000FA050CED00E05B
:1012900000E400E080E100E080FFFF1F10B504469D
:1012A000FB48844209D101218803FFF73FFF002159
:1012B0004FF48040FFF73AFF32E0F648844209D10C
:1012C00001214804FFF73FFF00214FF40030FFF7F2
:1012D0003AFF25E0F048844209D101218804FFF754
:1012E00032FF00214FF48020FFF72DFF18E0EB487C
:1012F000844209D10121C804FFF725FF00214FF4E2
:101300000020FFF720FF0BE0E548844208D10121CF
:101310000805FFF718FF00214FF48010FFF713FFB7
:1013200010BD2DE9F04786B005460E460024A246C2
:1013300000BFA1460027B08900B100BF2F462C8A0C
:101340004CF6FF700440F08804432C82AC894EF6C2
:10135000F3100440B088318908437189084304437D
:10136000AC81AC8A4FF6FF400440B0890443AC82A4
:1013700001A8FFF754FEC648874202D1DDF810A04D
:1013800001E0DDF80CA0A88900F4004040B10AEBB0
:10139000CA0000EB0A1031684900B0FBF1F807E021
:1013A0000AEBCA0000EB0A1031688900B0FBF1F8C3
:1013B0006420B8FBF0F004012009642101FB1089CE
:1013C000A88900F4004040B1322000EBC900B0FB16
:1013D000F1F000F00700044308E0322000EB0910B0
:1013E0006421B0FBF1F000F00F0004432C8106B043
:1013F000BDE8F0874FF41651016000218180C18063
:1014000001810C21418100218181704710B5024684
:101410000020108A4FF2FF0318400B884C882343AA
:101420008C882343CC8823431843108210BD0021AD
:10143000018041808180C180704721B1828942F45E
:101440000052828104E082894DF6FF731A40828146
:101450007047F0B50346002400260025002040F622
:101460006A17B94200D100BF1846C1F3421401F017
:101470001F06012707FA06F5012C01D10C3004E004
:10148000022C01D1103000E014301AB107682F434C
:10149000076002E00768AF430760F0BD1AB1838AB6
:1014A0000B43838202E0838A8B4383827047028AE4
:1014B0004FF6F0731A400282028A0A430282704792
:1014C00082894FF2FF731A40828182890A438281A6
:1014D000704721B1828942F00202828104E0828950
:1014E0004FF6FD731A4082817047028A4FF6DF7310
:1014F0001A400282028A0A430282704721B1028A9C
:1015000042F48042028204E0028A4BF6FF731A40E2
:1015100002827047C1F308028280704701468888C2
:10152000C0F308007047818941F001018181704753
:10153000028BD2B20283028B42EA012202837047FD
:10154000028B02F47F420283028B0A4302837047BC
:1015500021B1828A42F02002828204E0828A4FF620
:10156000DF731A408282704721B1828A42F01002F2
:10157000828204E0828A4FF6EF731A4082827047BB
:1015800021B1828A42F00802828204E0828A4FF608
:10159000F7731A408282704721B1828942F4004277
:1015A000828103E08289C2F30E028281704721B1F9
:1015B000828A42F40062828204E0828A4FF2FF73E0
:1015C0001A4082827047828A4FF6FB731A408282E9
:1015D000828A0A438282704721B1828A42F00202E3
:1015E000828204E0828A4FF6FD731A40828270473D
:1015F00002460020B1F5007F00D100BF13880B40E8
:101600000BB1012000E00020704701F40072B2F538
:10161000007F00D100BFCA430280704770B5024608
:10162000002400230025002040F66A16B14200D1B4
:1016300000BFC1F3421501F01F03012606FA03F3B0
:10164000012D02D19689334006E0022D02D1168A7F
:10165000334001E0968A33400C12012606FA04F466
:101660001688344013B10CB1012000E0002070BD99
:1016700010B50022002340F66A14A14200D100BF39
:101680000A1201249440A3B2DC43048010BD000080
:10169000003801400044004000480040004C004039
:1016A0000050004010B50446BE48844208D10121D4
:1016B0008014FFF73BFD0021A014FFF737FD16E073
:1016C000B948844208D101210014FFF73CFD0021F4
:1016D0002014FFF738FD0AE0B448844207D1012105
:1016E000C013FFF730FD0021E013FFF72CFD10BD04
:1016F00010B50022028802F441520B884C88234323
:101700008C882343CC8823430C8923434C8923436F
:101710008C892343CC8923431A430280838B4FF265
:10172000FF74234083830B8A038210BD2DE9F04FA1
:1017300085B005460C464FF0000902274FF000081F
:101740004FF0010B0026B246A88B4FF24001084033
:10175000A88302202884B5F81C90A068022801D133
:1017600000BF38E0A08810B94FF0010B01E04FF046
:10177000020B8D48854200D100E000BF6846FFF7AC
:101780004EFCDDF800A0E088B0F5007F0AD14FEAFA
:101790001A2000EB80004000A168B0FBF1F0401D72
:1017A00086B20BE04FEA4B10BAFBF0F000EB800082
:1017B0004000A168B0FBF1F0401D86B20A20B6FBE4
:1017C000F0F606F00108A6EB0800C0F34F074FF64D
:1017D000FF7000EA0828022F01DBFF2F02DD02273D
:1017E0004FF00008E08840EA080038432884A088C9
:1017F000A1890843618808432188084340F40060B8
:1018000040EA0909A5F81C9005B0BDE8F08F002159
:10181000018041808180C180018141818181C181BC
:101820000721018270470021018041808180C180B1
:101830000221816000218181704721B1028842F03C
:101840004002028004E002884FF6BF731A40028013
:10185000704721B1828B42F48062828304E0828BE4
:101860004FF6FF331A408283704730B500240023BF
:101870000C110125A540ABB21AB185881D438580A6
:1018800002E085889D43858030BD1AB183880B4373
:10189000838002E083888B43838070478181704717
:1018A0000146888970474FF6FF62914204D0028852
:1018B00042F48072028004E002884FF6FF631A400F
:1018C0000280704721B1828842F00402828004E0E5
:1018D00082884FF6FB731A408280704702884FF26D
:1018E000FF731A40028002880A4302807047018811
:1018F00041F480510180704721B1028842F40052C6
:10190000028004E002884DF6FF731A40028070479F
:1019100002460020012901D0108B00E0908A704718
:101920000146088A7047B1F5804F04D1028842F41D
:101930008042028004E002884BF6FF731A40028066
:1019400070470246002013890B400BB1012000E0D4
:1019500000207047CA4302817047F0B5024600205C
:1019600000240023002501F00F070126BE40B4B279
:101970000B1101269E40B3B2968806EA030516892C
:10198000264016B10DB1012000E00020F0BD10B5D9
:10199000002201F00F040123A3409AB2D343038134
:1019A00010BD00000030014000380040003C004005
:1019B00001684FF6FE721140016000210160416034
:1019C0008160C1608D49884208D18C4908394968D5
:1019D00041F00F01894A083A51608AE08749143181
:1019E000884208D185490839496841F0F001834AA5
:1019F000083A51607DE081492831884208D17F4909
:101A00000839496841F470617C4A083A516070E0D5
:101A10007A493C31884208D178490839496841F40B
:101A20007041764A083A516063E074495031884207
:101A300008D172490839496841F470216F4A083A5F
:101A4000516056E06D496431884208D16B490839CC
:101A5000496841F47001694A083A516049E06749B0
:101A60007831884208D165490839496841F0706188
:101A7000624A083A51603CE06149884206D1011F40
:101A8000096841F00F01021F116032E05C49143116
:101A9000884208D15A49091F096841F0F001584AA3
:101AA000121F116025E056492831884208D1544957
:101AB000091F096841F47061514A121F116018E052
:101AC0004F493C31884208D14D49091F096841F40A
:101AD00070414B4A121F11600BE049495031884256
:101AE00007D14749091F096841F47021444A121F70
:101AF0001160704710B50022026847F6F0739A43F0
:101B00000C6A8B6823430C6923434C6923438C691B
:101B10002343CC6923434C6A23438C6A23431A43EF
:101B20000260CB6843600B6883604B68C36010BD84
:101B30000021016041608160C1600161416181619A
:101B4000C161016241628162704721B1026842F065
:101B50000102026004E002684FF6FE731A40026060
:101B600070471AB103680B43036002E003688B43BC
:101B700003607047416070470146486880B2704713
:101B800001460020002201F080531BB11C4B083B92
:101B90001A6802E0194B083B1A6802EA01030BB10C
:101BA000012000E00020704700F0805119B1144975
:101BB000091F086002E01149083948607047014672
:101BC0000020002201F080531BB10D4B083B1A6826
:101BD00002E00A4B083B1A6802EA01030BB101203C
:101BE00000E00020704700F0805119B10449091F3E
:101BF000086002E001490839486070470800024067
:101C00000804024010B50446FE48844208D1012170
:101C1000C014FFF78BFA0021E014FFF787FAC4E045
:101C2000B4F1804F08D101210846FFF78CFA00215A
:101C30000120FFF788FAB8E0F348844208D1012177
:101C40000220FFF780FA00210220FFF77CFAACE0C7
:101C5000EE48844208D101210420FFF774FA0021E4
:101C60000420FFF770FAA0E0E948844208D101217E
:101C70000820FFF768FA00210820FFF764FA94E0D3
:101C8000E448844208D101211020FFF75CFA0021CA
:101C90001020FFF758FA88E0DF48844208D101217C
:101CA0002020FFF750FA00212020FFF74CFA7CE0BB
:101CB000DA48844208D101214014FFF737FA0021A5
:101CC0006014FFF733FA70E0D548844209D101214E
:101CD000C804FFF72BFA00214FF40020FFF726FA83
:101CE00063E0D048844209D101210805FFF71EFABC
:101CF00000214FF48010FFF719FA56E0CA488442D9
:101D000009D101214805FFF711FA00214FF4001015
:101D1000FFF70CFA49E0C548844208D10121402070
:101D2000FFF711FA00214020FFF70DFA3DE0C0480F
:101D3000844208D101218020FFF705FA002180208C
:101D4000FFF701FA31E0BB48844208D10121801538
:101D5000FFF7F9F90021A015FFF7F5F925E0B648DE
:101D6000844209D101210804FFF7E0F900214FF472
:101D70008030FFF7DBF918E0B048844209D1012137
:101D80004804FFF7D3F900214FF40030FFF7CEF9F4
:101D90000BE0AB48844208D101218804FFF7C6F963
:101DA00000214FF48020FFF7C1F910BD0022028806
:101DB000944B98420ED0994B98420BD0B0F1804F83
:101DC00008D0914B984205D0904B984202D0904B4E
:101DD000984204D14FF68F731A404B881A438D4BAB
:101DE000984207D08C4B984204D04FF6FF431A40DC
:101DF000CB881A4302808B8883850B880385814BAF
:101E000098420BD0854B984208D08B4B984205D016
:101E10008A4B984202D08A4B984201D10B7A0386B2
:101E200001238382704770B5002400220023058CB3
:101E30004FF6FE7635400584028C8388048B4FF67E
:101E40008F752C40B51E2C400D882C43751E2A40E2
:101E50000D892A434D882A436A4DA8420BD06F4D05
:101E6000A84208D0744DA84205D0744DA84202D0B3
:101E7000734DA84213D14FF6F7752A404D892A4376
:101E80004FF6FB752A408D882A434FF6FF652B409D
:101E90004FF6FF552B408D892B43CD892B438380F3
:101EA0000483CD888586028470BD70B5002400222D
:101EB0000023058C4FF6EF7635400584028C83882D
:101EC000048B48F6FF752C404FF6FF452C400D88DB
:101ED0004FF6FF7606EA05252C434FF6DF752A40BC
:101EE0000D8906EA05152A434D8806EA05152A4399
:101EF000444DA84202D0494DA8421DD14FF67F75EE
:101F00002A404D894FF6FF7606EA05152A434FF61B
:101F1000BF752A408D8806EA05152A434FF6FF351E
:101F20002B404FF2FF752B408D8906EA85052B4328
:101F3000CD8906EA85052B4383800483CD880587F8
:101F4000028470BD70B5002400220023058C4FF67A
:101F5000FF6635400584028C8388848B4FF68F752D
:101F60002C404FF6FC752C400D882C434FF6FF5546
:101F70002A400D894FF6FF7606EA05252A434D884B
:101F800006EA05252A431F4DA84202D0234DA84248
:101F90001DD14FF2FF752A404D894FF6FF7606EAB4
:101FA00005252A434FF6FF352A408D8806EA052588
:101FB0002A434EF6FF752B404DF6FF752B408D8959
:101FC00006EA05152B43CD8906EA05152B438380C8
:101FD0008483CD888587028470BD70B5002200237C
:101FE0000024058C4EF6FF7635400584038C8488EA
:101FF000828B48F6FF752A404FF6FF452A400D8830
:1020000020E00000002C01400004004000080040D7
:10201000000C00400010004000140040003401405B
:10202000004C0140005001400054014000180040A5
:10203000001C0040002000400040014000440140DE
:10204000004801404FF6FF7606EA05252A434DF683
:10205000FF752B400D8906EA05352B434D8806EAAE
:1020600005352B43FA4DA84202D0FA4DA84208D1BB
:102070004BF6FF752C408D894FF6FF7606EA8515E5
:102080002C4384808283CD88A0F84050038470BDA7
:10209000828B4FF2FF331A408283828B4FF6FF739D
:1020A00003EA01231A4382837047F0B50C461546B4
:1020B000002200210026078C4EF6FF7C07EA0C0761
:1020C0000784828B018C4FF6FF7707EA043640F6CF
:1020D000FF473A404FF6FF7707EA05273A434FF6A6
:1020E000FF7707EA03373A43D94FB8420ED0D94FAA
:1020F000B8420BD0B0F1804F08D0D74FB84205D0CE
:10210000D64FB84202D0D64FB84206D14DF6FF772F
:10211000394046F48057394305E047F6FF573940C8
:1021200044F48057394382830184F0BD828B4FF69B
:10213000F3731A408283828B0A4382837047F0B51F
:102140000C461546002200210026078C4FF6FF6C36
:1021500007EA0C070784828B018C4FF6FF7707EAAA
:1021600004264FF60C773A404FF6FF7707EA03173D
:102170002F433A43B64FB8420ED0B64FB8420BD0B9
:10218000B0F1804F08D0B44FB84205D0B34FB84239
:1021900002D0B34FB84206D14FF6FF57394046F44C
:1021A0008077394305E04FF2FF57394044F4807798
:1021B000394382830184F0BD028B4FF2FF331A4012
:1021C0000283028B4FF6FF7303EA01231A43028353
:1021D0007047F0B50C461546002200210026078CFA
:1021E0004FF6EF7C07EA0C070784028B018C4FF651
:1021F000FF7707EA041640F6FF473A404FF6FF77AD
:1022000007EA03373A434FF6FF7707EA05273A43D1
:102210008F4FB8420ED08F4FB8420BD0B0F1804FE5
:1022200008D08D4FB84205D08C4FB84202D08C4FA9
:10223000B84206D14FF6DF77394046F010073943F0
:1022400005E04FF65F77394044F0100739430283C9
:102250000184F0BD028B4FF6F3731A400283028BA8
:102260000A4302837047F0B50C4615460022002150
:10227000068C4FF6FE773E400684028B018C4FF6AB
:102280000C7632407E1C06EA03162E433243704E13
:10229000B0420ED06F4EB0420BD0B0F1804F08D09C
:1022A0006D4EB04205D06D4EB04202D06C4EB04281
:1022B00006D14FF6FD76314044F00106314305E08A
:1022C0004FF6F576314044F0010631430283018434
:1022D000F0BD70B505460C465D4885420ED05D48A0
:1022E00085420BD0B5F1804F08D05B48854205D0C0
:1022F0005A48854202D05A48854200D100E000BFCA
:10230000208850B92389A28861882846FFF7ABFF4F
:10231000E1882846FFF79EFF25E0208804280AD19F
:102320002389A28861882846FFF753FFE188284661
:10233000FFF742FF17E0208808280AD12389A288E6
:1023400061882846FFF7FBFEE1882846FFF7EEFE8E
:1023500009E02389A28861882846FFF7A6FEE18864
:102360002846FFF795FE70BD2DE9F04105460C4665
:1023700000260127608808B9022600E00026A08810
:10238000012801D1022700E001272088A0B9238974
:10239000A28861882846FFF766FFE1882846FFF794
:1023A00059FF23893A4631462846FFF712FFE18854
:1023B0002846FFF701FF13E02389A2886188284699
:1023C000FFF707FFE1882846FFF7F6FE23893A4624
:1023D00031462846FFF747FFE1882846FFF73AFFD6
:1023E000BDE8F0810A884B881A438B881A43CB8852
:1023F0001A430B891A434B891A438B891A43A0F855
:10240000442070474FF6FF71818000210180C18018
:102410004180017270470021018041808180C1802C
:10242000018141818181C18170470021018041800A
:10243000012181800021C18001817047002101803C
:1024400041808180C180018141818181704700008C
:10245000002C01400034014000040040000800400E
:10246000000C004021B1028842F00102028004E029
:1024700002884FF6FE731A400280704731B1B0F8FF
:10248000442042F40042A0F8442005E0B0F8442083
:10249000C2F30E02A0F8442070471AB183890B439F
:1024A000838102E083898B438381704781827047F7
:1024B00041EA0203A0F8483070471AB183890B4300
:1024C000838102E083898B438381704701894FF6C2
:1024D000F8721140018170470A46002101894FF6C8
:1024E0008F73194011430181704730B504460D4682
:1024F00029462046FFF7F0FF208940F007002081A1
:1025000030BD2DE9F04104460D4616461F46602DAC
:1025100006D13B46012231462046FFF75AFE05E030
:102520003B46012231462046FFF79DFE29462046C4
:10253000FFF7D2FF208940F007002081BDE8F0813D
:1025400030B50C4600210189C9B24FF6FF7505EA86
:102550000325154325432943018130BD2DE9F04171
:1025600005460E4617469846002443463A463146ED
:102570002846FFF7E5FF2C894FF6F870044044F039
:1025800007044FF68F70044044F070042C81BDE8BE
:10259000F081F0B504460D4616461F463B463246CE
:1025A00029462046FFF7CCFF208940F48040208157
:1025B000F0BD0185828270470A46002101884FF6EE
:1025C0008F731940114301807047F0B50C461546D2
:1025D0001E460021002200230189028B038C4FF646
:1025E000F877394021434FF6FC473A4040F2011753
:1025F0003A434FF6DD773B404FF6FF7707EA061781
:102600002F433B43018102830384F0BD0A4600212E
:10261000018B4FF68F7319401143018370470A46AF
:102620000021018B48F6FF7319404FF6FF7303EA50
:1026300002231943018370470A460021818B4FF61C
:102640008F7319401143818370470A460021818BA3
:1026500048F6FF7319404FF6FF7303EA022319434C
:102660008183704721B1028842F08002028004E039
:1026700002884FF67F731A400280704721B182882A
:1026800042F00402828004E082884FF6FB731A4015
:102690008280704721B1828842F00802828004E083
:1026A00082884FF6F7731A408280704721B1828882
:1026B00042F00102828004E082884FF6FE731A40E5
:1026C000828070470A460021018B4FF6F77319404C
:1026D0001143018370470A460021018B4FF2FF73BB
:1026E00019404FF6FF7303EA022319430183704731
:1026F0000A460021818B4FF6F773194011438183FD
:1027000070470A460021818B4FF2FF7319404FF644
:10271000FF7303EA02231943818370470A460021AD
:10272000018B4FF6FB7319401143018370470A4632
:102730000021018B4FF6FF3319404FF6FF7303EA78
:1027400002231943018370470A460021818B4FF60B
:10275000FB7319401143818370470A460021818B26
:102760004FF6FF3319404FF6FF7303EA0223194374
:10277000818370470A460021018B4FF67F73194011
:102780001143018370470A460021018BC1F30E01FA
:102790004FF6FF7303EA02231943018370470A4689
:1027A0000021818B4FF67F7319401143818370475D
:1027B0000A460021818BC1F30E014FF6FF7303EA35
:1027C00002231943818370470A460021018C4FF68A
:1027D000FD7319401143018470470A460021018CA2
:1027E0004FF6F77319401143018470470A460021E0
:1027F000018C4FF6DF7319404FF6FF7303EA0213A3
:102800001943018470470A460021018C4FF67F73FB
:1028100019404FF6FF7303EA02131943018470470E
:102820000A460021018C4FF6FF5319404FF6FF7303
:1028300003EA02231943018470470A460021018CF0
:102840004FF2FF7319404FF6FF7303EA0223194357
:10285000018470470A460021018C4DF6FF73194030
:102860004FF6FF7303EA023319430184704730B512
:10287000002301248C40A3B2048C9C430484048C68
:1028800002FA01F5ADB22C43048430BD30B500230B
:1028900004248C40A3B2048C9C430484048C02FA6C
:1028A00001F5ADB22C43048430BD70B50346002061
:1028B00000241846183001258D40ACB21D8CA5436C
:1028C0001D8409B1082909D100EB6100056825F0D4
:1028D000700505600568154305600EE00D1FC5F322
:1028E0004E052844056825F4E045056005684FF667
:1028F000FF7606EA02263543056070BD21B10288E5
:1029000042F00202028004E002884FF6FD731A4092
:102910000280704721B1028842F00402028004E084
:1029200002884FF6FB731A400280704721B18288FB
:1029300042F08002828004E082884FF67F731A4062
:102940008280704702884FF6F7731A40028002882F
:102950000A430280704782884FF68F731A40828044
:1029600082880A438280704702894FF6F8731A40C2
:10297000028102890A430281704702894FF67F7300
:102980001A40028102890A4302817047818470479C
:1029900081857047818670470187704781877047BE
:1029A000A0F84010704702884FF6FF431A4002809B
:1029B00002880A43028070470146888E70470146AC
:1029C000088F70470146888F70470146B1F8400074
:1029D00070470146888C70470146088D7047024653
:1029E0000020138A0B400BB1012000E0002070474B
:1029F000CA430282704730B50246002000230024FB
:102A0000158A05EA0103958905EA010413B10CB1A1
:102A1000012000E0002030BDCA4302827047000060
:102A20000CB50020019000906C48006840F48030A4
:102A30006A49086000BF6948006800F400300090EF
:102A40000198401C0190009818B90198B0F5A06F4A
:102A5000F1D16248006800F4003010B1012000900C
:102A600001E0002000900098012843D15C480068F4
:102A700040F010005A4908600846006820F0030042
:102A800008600846006840F002000860534840684B
:102A9000524948600846406848600846406840F42B
:102AA000806048600846406820F47C104860084612
:102AB000406840F4E81048600846006840F08070C4
:102AC000086000BF4548006800F000700028F9D099
:102AD0004248406820F0030040494860084640688A
:102AE00040F00200486000BF3C48406800F00C0025
:102AF0000828F9D10CBD10B5FFF792FF10BD10B535
:102B00003648006840F001003449086008464068D3
:102B10003449084031494860084600683249084055
:102B20002E4908600846006820F4802008600846A6
:102B3000406820F4FE0048604FF41F008860FFF7F3
:102B4000DAFF4FF000602949086010BD10B5002180
:102B500000200022214B5B6803F00C0121B1042905
:102B600006D0082928D107E0214B224C236027E01A
:102B70001F4B204C236023E0184B5B6803F470105C
:102B8000164B5B6803F48032022303EB904022B9BA
:102B9000194B4343174C23600DE0104B5B6803F463
:102BA000003323B1144B4343124C236003E0104B1A
:102BB0004343104C236003E00D4B0E4C236000BFD9
:102BC00000BF064B5B68C3F303130C4CE15C094B7D
:102BD0001B68CB40074C236010BD00000010024072
:102BE000002002400000FFF8FFFFF6FE08ED00E0C5
:102BF00000127A002400002000093D002800002077
:102C000010B56FF00400FEF72AFB2E4800682E492D
:102C1000B0FBF1F02D4908700846007800EB400148
:102C2000C1EBC0104FF6FF7101EAC00028490880CF
:102C300010BD0146254A12784A434FF0E0235A61FD
:102C400000229A611A46126942F001021A6100BF1D
:102C50004FF0E022106900F001021AB100F4803256
:102C6000002AF5D04FF0E022126922F001024FF065
:102C7000E0231A6100229A6170470146144A1288C3
:102C80004A434FF0E0235A6100229A611A461269C2
:102C900042F001021A6100BF4FF0E022106900F01B
:102CA00001021AB100F48032002AF5D04FF0E02280
:102CB000126922F001024FF0E0231A6100229A61AA
:102CC000704700002400002000127A003800002025
:102CD0003A00002010B586B00446012144F20400F9
:102CE000FEF70AFA4148FEF7D9FA4FF40070ADF842
:102CF000140003208DF8160018208DF8170005A980
:102D00003B48FDF73DFF4FF48060ADF81400042010
:102D10008DF8170005A93648FDF732FF25208DF8FC
:102D2000000003208DF801008DF8020001208DF8CD
:102D300003006846FEF749FA01940020ADF8080048
:102D4000ADF80A00ADF80C00ADF810000C20ADF89D
:102D50000E0001A92548FEF7E4FA012240F22551B0
:102D60002248FEF776FB01212048FEF766FB06B0FD
:102D700010BD10B540F225511C48FEF74FFC10B3B2
:102D80001A48FEF7CBFBC4B21A48008800F4004092
:102D9000C8B91848008800F4804060B10A2C03D0FC
:102DA00000201449088020E01248008840F40040C8
:102DB0001049088019E00D2C06D10E48008840F417
:102DC00080400C49088010E00A480088C0F30D00DC
:102DD00009490C5407480088401C064908800846E9
:102DE0000088C72801DD0020088010BD00380140A0
:102DF000000801403C0000205600002010B50446A9
:102E000044B100219748FFF7C1FD01219548FFF724
:102E100029FB03E000219348FFF724FB10BD10B508
:102E200040F225519048FEF7F9FB00B38E48FEF7BB
:102E300075FBC4B28D480088C82812DA0021894881
:102E4000FFF7A4FD8948008810B90120FFF7D6FFDD
:102E5000864801880088401C844A10808448445475
:102E600005E08248008840F400408049088010BD99
:102E70007FB505460C4601210420FEF74AF9ADF85E
:102E80000450ADF800400020ADF80600ADF8020097
:102E900069467448FEF78AFF012211467148FFF720
:102EA000FCFA1E208DF80C0001208DF80D00022088
:102EB0008DF80E0001208DF80F0003A8FEF785F9AC
:102EC0007FBD70B58CB006460C46154601210846FC
:102ED000FEF705F93046FEF76BFD019402951020D0
:102EE0000390002004900590802006900020079019
:102EF000089009904FF480500A9000200B9001A98F
:102F00003046FEF7F7FD0CB070BD10B586B0044634
:102F100001214804FEF7FDF801210420FEF7ECF83A
:102F200001210420FEF7E8F84F48FEF7B7F9042026
:102F3000ADF8140003208DF8160018208DF8170046
:102F400005A94C48FDF71CFE0820ADF8140003202D
:102F50008DF8160004208DF8170005A94548FDF7E7
:102F60000FFE01940020ADF80800ADF80A00ADF89E
:102F70000C00ADF810000C20ADF80E0001A93A4885
:102F8000FEF7CFF9012280213748FEF787FA3A4A47
:102F90003549091D3948FFF794FF01213248FEF7F2
:102FA0004CFA012240F225512F48FEF752FA262012
:102FB0008DF8000002208DF8010003208DF802003A
:102FC00001208DF803006846FEF7FFF841F61F4127
:102FD0006320FFF74DFF002024490880FFF70EFF14
:102FE00006B010BD10B501211E48FFF704FD60B109
:102FF0001E48008840F400401C49088001211948FF
:10300000FFF70AFD0020FFF7F9FE10BD70B504467A
:103010000D4600212046FEF798FD29462046FEF782
:10302000A9FD01212046FEF790FD70BD0FB438B513
:1030300005A800901048009A049900F079FC00203F
:10304000009000BF0D48FEF797FD0028FAD10A480E
:1030500000F028F8C4B221460848FFF7D7FF38BC73
:103060005DF814FB00080040004400403E000020D2
:10307000E8010020000801402001002080000240FB
:103080000648804706480047FEE7FEE7FEE7FEE702
:10309000FEE7FEE7FEE7FEE7FEE7FEE7FF2A0008A1
:1030A00031010008421C10F8011B0029FBD1801AD5
:1030B0007047F0B480EA0102D40F4200B2EB410F36
:1030C00002D20246084611464A0042D0C30DDDB284
:1030D000C1F3C752AD1A202D35DAC1F3160141F400
:1030E000000204B15242C5F1200602FA06F12A415B
:1030F0001044B3EBD05F23D0C4B1012DA0EBC3507B
:1031000009DCF0BC4FF0004202EAC352DBB200F52A
:10311000000000F0A6BA400000F1807000EBC35040
:10312000A0F1807040EAD170490009E0490841EA05
:10313000C071A0EBC35000F50000400800EBC35085
:10314000F0BC00F085BA6142012202EB4101001B94
:10315000F6E7F0BC704781F00041AAE780F000403C
:10316000A7E780EA010210B502F00043400022D038
:103170004A001FD0010E01EB1261C0F35600C2F3EA
:10318000560240F4000042F40002A0FB02200004BA
:103190007F39140400D0401C50EA124001D4400092
:1031A000491EC2B20C0604EBD010401C4008802A15
:1031B00002D003E0002010BD20F00100002900DA59
:1031C0000020184310BD2DE9FE4F804681EA030020
:1031D000C00F0C46009021F0004123F00045B8EBF1
:1031E0000200A94105D24046214690461C460B46A6
:1031F000024623F00040104347D0270DC7F30A00D2
:10320000C3F30A510290401A019040286BDAC3F3CD
:10321000130040F4801B0098924620B10023D2EBAB
:10322000030A63EB0B0B01985946C0F1400250466C
:1032300000F0EDF906460D4650465946019A00F059
:10324000F5F910EB08006141002487EA115284EA85
:10325000E7731A4340D0009A62B3019A012A4FEAF9
:10326000075215DC001B61EB02014FF0004202EA3D
:103270000752CDE90042001C41F5801132462B4631
:1032800000F02CFA03B0BDE8F08F40462146F9E784
:10329000001B61EB0201001C41F5801300185B412B
:1032A0002018A2F5001747EB030140EAD570B619C4
:1032B0006D4111E06D084FEA360645EAC0754FEAE8
:1032C0000752001B61EB0201001C41F58011490807
:1032D0004FEA30000019514132462B4603B0BDE899
:1032E000F04F00F0ECB90098012240000023D0EB31
:1032F000020263EBE073009821464FEAE074B8EBFA
:10330000000061EB0401E9E783F000435BE781F033
:10331000004158E72DE9FE4F81EA030404F0004420
:1033200021F0004100944FF0000B23F0004350EADD
:1033300001045ED052EA03045BD0C3F30A54C1F324
:103340000A552C44A4F2F3340194A0FB0254C1F3B7
:10335000130141F48011C3F3130343F4801301FB01
:10336000024400FB034E840A970A44EA815447EA68
:103370008357A4FB076802958D0A05FB07854FEA72
:10338000932C04FB0C542705029D4FEA065847EA8C
:103390001637B5EB08056EEB070C870E920E47EA61
:1033A000811742EA8312A7FB0201B6EB0B0164EB23
:1033B00000042B0D43EA0C335E1844EB1C50DA4634
:1033C0005146E7FB0201C5F313044FEA0B3343EA0E
:1033D00014534FEA0432019C43EA0603A4F10C049F
:1033E0000294009CCDE900B400F078F903B0BDE888
:1033F000F08F00200146F9E72DE9F04D81EA030442
:1034000004F0004B21F0004514464FF0000A23F071
:10341000004150EA050220D054EA01021DD0C5F354
:103420000A570246C5F31303C1F31300C1F30A564A
:1034300040F4801543F48013A7EB0608101BD64612
:1034400008F2FD3873EB050002D308F1010801E032
:1034500092185B41B8F1000F03DA00200146BDE885
:10346000F08D00204FF48011064684460EE0171BB5
:1034700073EB050705D3121B63EB050306434CEA08
:10348000010C49084FEA300092185B4150EA0107ED
:10349000EDD152EA030012D082EA040083EA05016A
:1034A000084305D0101BAB4106D20122002306E0E1
:1034B00000224FF0004302E06FF0010253101AEBBC
:1034C00006004CEB085110EB0A0041EB0B01BDE884
:1034D000F04D00F0F4B80EB540F2334102910021F6
:1034E000CDE900110A460B4600F0F8F803B000BD24
:1034F00000F0004230F000400AD0C10D01F56071CB
:10350000C0F3160042EA0151C20840071143704758
:10351000002001467047000030B5041E71F1000420
:1035200004DB4FF00044404264EB0101141E73F1D0
:10353000000405DB1C464FF00043524263EB0403DA
:103540008B4208BF824230BD01F0004330B421F00D
:10355000004150EA010206D00A0DA2F56072C1F3E3
:103560001301002A02DC30BC00207047440F44EAFB
:10357000C104C100E01830BC00EBC25000F068B8D4
:1035800030B50B46014600202022012409E021FA33
:1035900002F59D4205D303FA02F5491B04FA02F530
:1035A0002844151EA2F10102F1DC30BD2DE9F05FC7
:1035B0000546002092469B468846064681464024A2
:1035C0001BE0284641464746224600F03FF9534655
:1035D0005A46C01A914110D311461846224600F0AF
:1035E00016F82D1A67EB01084F46224601200021EC
:1035F00000F00DF817EB00094E41201EA4F1010464
:10360000DFDC484631462A464346BDE8F09F202A83
:1036100004DB203A00FA02F1002070479140C2F129
:10362000200320FA03F3194390407047202A06DB59
:10363000CB17203A41FA02F043EAE07306E041FA80
:1036400002F3D040C2F1200291400843194670476E
:103650000029A8BF7047401C490008BF20F00100A6
:10366000704710B4B0FA80FC00FA0CF050EA010484
:1036700004BF10BC704749B1CCF1200421FA04F416
:1036800011FA0CF118BF012121430843A3EB0C01EF
:10369000CB1D4FEA00614FEA102042BF002010BC52
:1036A000704700EBC35010440029A4BF10BC704702
:1036B000401C490008BF20F0010010BC704710B545
:1036C000141E73F1000408DA401C41F10001921845
:1036D0005B411A4301D120F0010010BD2DE9F04DEE
:1036E00092469B4611B1B1FA81F202E0B0FA80F243
:1036F00020329046FFF78BFF04460F4640EA0A004F
:1037000041EA0B0153465A46084313D0114653EA87
:10371000010019D0C8F14002504600F097F8054664
:103720000E46504659464246FFF771FF084305D002
:10373000012004E020463946BDE8F08D0020054315
:1037400046EAE0762C4337430A986305E40AA0EB87
:1037500008000022FD0A44EA47540A3002D500203E
:103760000146E9E7010510196941DDE9084500193D
:103770006941BDE8F04DA2E770B521F00043034375
:103780000CD0C1F30A550024D5EB040564EB040307
:10379000D617AD1AB34102DB0020014670BD2018D8
:1037A00041EB025170BD0EB5C10F80EAE0700844D4
:1037B000CA07002140F233438DE80E000A460B464B
:1037C000FFF78CFF03B000BDC1F30A52C1F3130130
:1037D00040F2FF3341F480119A4202DA00200146A0
:1037E000704740F233439A42A2F2334202DC524223
:1037F00000F02CB8FFF70BBF30B5041E71F10004C8
:1038000004DB4FF00044404264EB0101141E73F1ED
:10381000000405DB1C464FF00043524263EB0403F7
:10382000994208BF904230BD064C074D06E0E06863
:1038300040F0010394E8070098471034AC42F6D3F7
:10384000FCF77AFCC84D0008E84D0008202A04DB8C
:10385000203A21FA02F00021704721FA02F3D04009
:10386000C2F1200291400843194670472DE9F04DFE
:1038700000231A461B1A8A4103DB00200146BDE8DB
:10388000F08DC1F30A52C1F3130141F480154FF0DA
:10389000000BD10702D100186D41521E00270446CB
:1038A00040F2FF11384601EB620A3E46804602466E
:1038B00000204FF48011FFF7C9FFC2197141BB18F6
:1038C00046EB0100B4EB030C75EB000C04D3E41AD7
:1038D00065EB000517460E46241908F101006D41FD
:1038E00080463428E3DDF91946EB0600091BA841A0
:1038F00003D24FF0FF32134601E0002213461BEBC8
:10390000070046EB0A51BDE8F04DFFF7D8BE0000B6
:103910000FB4054B10B503A9044A029800F06CF9E6
:1039200010BC5DF814FB00009D0A00084000002058
:1039300037B514460846064B6A46214600F05CF946
:1039400004466946002000F0EEFC20463EBD000023
:1039500027430008490050EAC12018BF04204A0D3F
:1039600018BF40F0010040F2FF72B2EB515F08BF98
:1039700040F00200012808BF052070472DE9F04102
:103980004F1E00EBC7010446D1E9000115461E4653
:1039900037F006020DD02A463346FFF7BBFC7F1EE8
:1039A00004EBC703D3E90023FFF70DFC37F0060251
:1039B000F1D1022F25D0042F13D0062F18BFBDE858
:1039C000F0812A463346FFF7A5FCD4E90A23FFF726
:1039D000FAFB2A463346FFF79DFCD4E90823FFF79C
:1039E000F2FB2A463346FFF795FCD4E90623FFF79E
:1039F000EAFB2A463346FFF78DFCD4E90423FFF7A0
:103A0000E2FB2A463346FFF785FCD4E90223FFF7A1
:103A1000DAFB2A463346FFF77DFCD4E90023BDE8F4
:103A2000F041FFF7D0BB00000022134610460149C9
:103A3000FFF7E2BC0000F03FFFF7C5BB00221346D2
:103A400010461146FFF7D8BC40F2013200204FF07B
:103A5000E041FFF791BE0000024A00201107FFF786
:103A60008BBE000001FDFFFF02E008C8121F08C165
:103A7000002AFAD170477047002001E001C1121FEF
:103A8000002AFBD170470000014908607047000020
:103A9000440000202DE9FF5FDDE90220010DDDF883
:103AA00038B0024318D044F61050A1F2FF31414320
:103AB0000D140F98012820D0A5EB0B00401C5FEAE5
:103AC000000A4FF00004474EDFF81C91A046504614
:103AD00016D5CAF1000728E00F98012443A2012857
:103AE00008D0002100980F9BC0E90021C0E90243E3
:103AF000BDE8FF9F6FEA0B01F4E7CBF10000DEE7C2
:103B0000074612E0F80707D02246334640464946AA
:103B1000FFF700FC80468946224633461046194688
:103B2000FFF7F8FB04460E467F10002FEAD1DDE9CF
:103B30000201BAF1000F42464B4602DAFFF7EAFBF8
:103B400001E0FFF759FC04460E460022284BFFF720
:103B500053FE03D84FF0FF30014607E00022254B0B
:103B600020463146FFF72FFBFFF72EFE102409E019
:103B7000002C0ADB0A220023FFF718FD019B3032DC
:103B80001A55641E50EA0102F2D1641C019AC4F174
:103B9000110314440F9A012A03D0012208430DD1C6
:103BA0000AE0084304D000204FF0110B0F9080E78B
:103BB000A3EB0B056D1E0DE05B4504DD4FF000022D
:103BC00005F1010504E003DA4FF00002A5F101055B
:103BD000002AECD000980F99C0E90231C0E90045F5
:103BE00086E70000000024400000F03F30000000A5
:103BF0000000F0430000E03F2DE9FF4F95B09B46E9
:103C00008946064600250FE2252877D1002427465D
:103C1000F84A0121059400E0044316F8013F203BD7
:103C200001FA03F01042F7D130782A2811D06FF052
:103C30002F033078A0F13002092A16D8059A44F0F3
:103C4000020402EB820203EB42021044761C059050
:103C5000EFE759F8042B0592002A03DA504244F4A6
:103C60000054059044F00204761C30782E2816D1BA
:103C700016F8010F44F004042A280DD06FF02F022B
:103C80003078A0F13003092B09D807EB870302EB4A
:103C90004303C718761CF3E759F8047B761C307889
:103CA0006C280FD006DC4C2817D068280DD06A2865
:103CB00014D104E0742810D07A280FD10DE044F418
:103CC00000140AE044F4801401E044F440147278D3
:103CD000824202D104F58014761C761C3078662866
:103CE0000BD013DC582877D009DC002875D0452884
:103CF000F6D04628F4D047281AD19DE118E0632871
:103D000035D0642879D0652812D195E1702873D018
:103D100008DC6728F1D069286FD06E280DD06F2895
:103D200006D1B5E073282CD0752875D0782874D0CA
:103D30005A46179990476D1C75E1C4F3025002284A
:103D400009D003280DD0D9F8001004280DD00D603B
:103D500009F1040967E1D9F80010EA17C1E9005236
:103D6000F6E7D9F800100D80F2E70D70F0E719F8CA
:103D7000041B8DF8001000208DF80100EA46012098
:103D800003E059F804AB4FF0FF3061074FF000013A
:103D900002D40DE008F101018846B9420FDA8045EE
:103DA000F8DB1AF808100029F4D108E008F1010145
:103DB00088468142FADB1AF808100029F6D10598E6
:103DC0005B46A0EB080721463846179A00F094FAA4
:103DD000284400EB080507E04DE029E10DE01AF862
:103DE000010B5A4617999047B8F10108F7D25B4684
:103DF00021463846179A13E142E00A220092C4F3A2
:103E000002524FF0000A022A08D059F804CB032AC4
:103E10004FEAEC710AD00DE029E02AE009F1070130
:103E200021F00702F2E802C1914609E00FFA8CFC8A
:103E30004FEAEC71042A03D14FFA8CFC4FEAEC7183
:103E4000002907DA0A460021DCF1000C61EB0201CF
:103E50002D2202E0220504D52B228DF80420012218
:103E600003E0E20701D02022F7E7904659E00A215B
:103E700002E010220DE010214FF0000A00910BE04B
:103E800010224FF0000A44F004040827009203E0D7
:103E900008224FF0000A0092C4F30252022A05D011
:103EA00059F804CB0021032A08D009E009F10701E1
:103EB00021F00702F2E802C1914605E01FFA8CFCEE
:103EC000042A01D10CF0FF0C4FF00008220728D57E
:103ED000702806D0009B83F0100353EA0A0305D034
:103EE0000EE040228DF80420012208E05CEA010285
:103EF00006D030228DF804208DF80500022290466D
:103F0000009B83F0080353EA0A030AD15CEA01022A
:103F100001D1620705D530228DF804204FF0010849
:103F20007F1E582804D034A003900EA802900DE004
:103F300036A0F9E753466046009AFFF737FB844600
:103F40000398825C0298401E029002705CEA0100B5
:103F5000F0D1029806A9081A00F1200A600702D5DC
:103F600024F4803400E00127574502DDA7EB0A0066
:103F700000E0002000EB0A01009005984144401A3F
:103F80000590E00306D45B462146179A059800F099
:103F9000B3F90544002706E001A85A46C05D179909
:103FA00090476D1C7F1C4745F6DBE0030CD55B4654
:103FB0002146179A059800F09FF9054404E0302047
:103FC0005A46179990476D1C0099481E0090002989
:103FD000F5DC08E0029802995A460078491C0291E3
:103FE000179990476D1CBAF10001AAF1010AF1DCA2
:103FF00065E10000092801003031323334353637AD
:104000003839616263646566000000003031323324
:1040100034353637383941424344454600000000C4
:1040200000F058F90544761C307800287FF4ECAD98
:1040300019B02846BDE8F08F620700D4062709F1C1
:10404000070222F0070CFCE80223E14603F00048D7
:104050005FEA080C02D00FF2702C0DE05FEA045CFE
:1040600002D50FF2682C07E05FEAC47C02D00FF2A1
:10407000602C01E0AFF2700C4FF0FF3823F00043EA
:10408000CDF850C065280CD006DC452809D046285C
:104090001DD047283DD13DE0662818D067287ED145
:1040A00038E00021112F01DB112000E0781CCDE960
:1040B000000106A90EA8FFF7EDFCDDE90F010E9A3D
:1040C00003910021009207F1010A04914DE04FF0A5
:1040D00000400097CDE9011006A90EA8FFF7DAFC11
:1040E000DDE90F0203920E9B11990022DDF80CA06E
:1040F0000093049211B9791C00EB010AB7EB0A0096
:1041000004D4C0F1FF3007F1010A0490AAEB0700C4
:10411000019044E0012F00DA01270021112F01DD79
:10412000112000E03846CDE9000106A90EA8FFF7EE
:10413000B1FCDDE90F010E9A039100210491009278
:10414000BA4621070CD40399514500DA8A46BAF1E0
:10415000010F05DD009AAAF10101515C302908D058
:10416000B84202DA10F1040F06DA0121CDE901109C
:1041700015E0AAF10101E9E7002805DC04990144F2
:104180000491AAEB000102E0411C514500DD8A4682
:104190000499401A401C01904FF000400290200703
:1041A00004D40198504501DBCDF8048000208DF83F
:1041B0004F0002980DF14F07B0F1004F25D02B2092
:1041C0000E9002984FF0020800280CDA404202904C
:1041D0002D200E9007E00A210298FFF7D1F9303127
:1041E000029007F8011DB8F10001A8F10108F2DC06
:1041F00002980028EFD1791E0E980870307800F0F0
:10420000200040F0450007F8020D12A8C01B00F185
:1042100007081498007800B1012000EB0A0101980A
:1042200001EBE07105984144401A401E0590E003FF
:1042300006D45B462146179A059800F05DF80544C0
:104240001498007818B15A46179990476D1CE003EE
:1042500024D55B462146179A059800F04DF8054491
:104260001CE00498002807DBDDE90301884203DD38
:104270000098405C179901E0179930205A46904702
:10428000049805F10105401C04900198401E01901E
:1042900004D12E205A46179990476D1CBAF100019F
:1042A000AAF1010ADDDC05E017F8010B5A4617995F
:1042B00090476D1CB8F10001A8F10108F4DC5B46E1
:1042C0002146179A0598ABE62D0000002B00000050
:1042D000200000002DE9F041044600251E46174647
:1042E000880404D405E039462020B0476D1C641EC4
:1042F000F9D52846BDE8F0812DE9F04104460025B6
:104300001E469046C80301D5302700E020278804C8
:1043100004D505E041463846B0476D1C641EF9D50A
:104320002846BDE8F0810A68531C0B601070704786
:104330002DE9F04D16460F4694B01C4621F0004181
:1043400023F00042002814BF4FF0010C4FF0000C86
:104350000CEB470CFE4B0CEB03054FEA630C654579
:104360002BD3350018BF012505EB44051D44F94B3F
:104370009D4222D3F84B52EA060C02D09F4205D14F
:1043800048B914B000201946BDE8F08D002808BFD8
:104390004FF0000C01D04FF0010C0CEB470313F56C
:1043A000001F0AD8002E14BF4FF0010C4FF0000C74
:1043B0000CEB440313F5001F07D914B03246234613
:1043C0003946BDE8F04DFFF737BBDFF890834FF07B
:1043D000000A002FB8BF424523DAE14B9A42A8BF3A
:1043E0004FF0020A1DDADC4B93421ADCDD4B03EB83
:1043F0002253142B08DDC3F1340C26FA0CF303FA14
:104400000CFCB4450DD108E05EB9C3F1140C22FADE
:104410000CF303FA0CFC944503D103F00103C3F140
:10442000020A51EA00031BD1002C19DA002F18BF31
:10443000BAF1020F02D0BAF1010F07D00220FFF744
:1044400023FB14B0BDE8F04DFFF7EEBA0220FFF7F2
:104450001BFBFFF7E9FA14B081F00041BDE8F08DD5
:10446000330070D1424525D107F1804212F5801208
:1044700001BF00280020B84914B008BFBDE8F08D86
:10448000B548884207DC002CA1BF1846214614B06D
:10449000BDE8F08D07E0002CBFBF184684F0004156
:1044A00014B0BDE8F08DB0497944D1E9000114B0F1
:1044B000BDE8F08DDFF8A0C262452AD1002C24DAD5
:1044C00039B1414517D1002804BF002002461CD154
:1044D00006E040B10220FFF7D7FAFFF7B5FA0A4627
:1044E000394600F0D7BA9D4A394614B0002062F32D
:1044F0001E01BDE8F08D08DA14B03B46BDE8F04D72
:10450000024600206146FEF777BF14B03946BDE889
:10451000F08D414517DAB4F1804F0CD0A4F100536F
:10452000B3F1FF530FD13B1E0DDB14B01946BDE8AC
:10453000F04D00F0D9BB3B4614B00246BDE8F04D4B
:104540001946FEF7E7BE050027F000433AD1E1B176
:10455000414537D1002F06DD002CA1BF0020414688
:1045600014B0BDE8F08D002F01DD002C1FDB002F03
:1045700016DA002C14DBBAF1010F4FF0000014BF63
:1045800076497A4914B0BDE8F08DBAF1020F18BF30
:10459000002F0CD0BAF1010F09D1002F07DA0BE080
:1045A000002FB8BF002C0DDABAF1010F04D00020A3
:1045B00014B00146BDE8F08D14B000204FF000416A
:1045C000BDE8F08D4FF0010808EBE77CCDF814C092
:1045D0005CEA0A0C0DD0DFF898C162457EDDDFF899
:1045E00094C1654B624512DD8B420ADB002C18DB5F
:1045F00023E00120FFF748FA14B0BDE8F04DFFF7C3
:104600001DBA554A8A4202DC002C0ADC15E09942A8
:1046100002DA002C11DA04E04F4B994219DD002C2C
:104620000BDD0220FFF730FAFFF70EFA4B4A14B009
:1046300061F31E021146BDE8F08D0220FFF724FA57
:10464000FFF70AFA444A14B061F31E021146BDE8AE
:10465000F08D00223946FEF757FE07460D466FF0F3
:104660000102FFF789F84FF05532444BFEF74FFE39
:104670003A462B46FEF74EFE0022414BFEF747FE20
:1046800080468B463A462B4610461946FEF742FEB8
:1046900042465B46FEF73EFE88460E904FF0C04213
:1046A000384B38462946FEF735FE83460091364A98
:1046B000344B41460E98FEF72DFE80460191334A59
:1046C000334B38462946FEF725FE4246019BFEF74E
:1046D0001BFE0D4602460B460C9000E011E05846CA
:1046E0000099FEF770FD002788465A463846009B21
:1046F000FEF70AFE2B460C9AFEF709FE024600F072
:1047000079B90020B1F5801F07DA3522284619460D
:10471000FFF732F805466FF0340000EB2150A0F2AD
:10472000FF300190C1F3130040F07F6141F0405130
:10473000029118498842D8BF4FF0000B35DD164969
:104740008142C8BF4FF0010B2FDC4FF0000B25E07A
:10475000FFFF1F00FFFF0F000000F03F0000F07F91
:104760000000404301FCFFFF140900000000F0FFBF
:104770000000E0410000F043FFFFEF3F5555D53FFB
:104780000000E03F4715F73FFE822B6544DF5DF8F0
:104790000BAE543E8E9803007AB60B000198401C75
:1047A00001900298A0F580100290FF480299784489
:1047B00000EBCB000991D0E9002328460B9312921D
:1047C000FEF7A2FD00910A9028460B9B129A0999C8
:1047D000FEF7F9FC02460B460020F449FEF70CFEFA
:1047E000CDE90C010B46024600990A98FEF792FDAE
:1047F0000690EF4888460027784402990068109098
:104800004FF0005040EA610000EB8B4000F50021C2
:1048100002910B9B129A1098FEF776FD2A46099B8F
:10482000FEF775FD3A464346FEF774FD0891129077
:1048300038464146029B109AFEF76CFD009B0A9A8F
:10484000FEF765FD089B129AFEF75EFDDDE90C237D
:10485000FEF760FD0B91069A1290434610461946EA
:10486000FEF758FD05460246D2480B460A9106213E
:104870007844FFF783F80A9B2A4608910290104675
:104880001946FEF747FD089B029AFEF743FD0546D1
:104890000991434638461946069AFEF794FC0B9B4D
:1048A000129AFEF737FD2A46099BFEF78CFCCDE9EC
:1048B00008013A46434610461946FEF72BFD0A9179
:1048C0000022BD4B0090FEF77EFCDDE90823FEF7D9
:1048D0007AFC0D463A46B84B3846FEF715FD0A9B62
:1048E000009AFEF711FDDDE90823FEF710FDCDE982
:1048F00008013A462B4610464146FEF70BFD009153
:104900000A90DDE908014346069AFEF703FD06908A
:1049100088462B463A460B991298FEF7FBFC434615
:10492000069AFEF750FC80460B4602460D91009910
:104930000A98FEF748FC00200F460546009B0A9A9D
:10494000FEF7E2FC42460D9BFEF7E1FC88460E9026
:104950004FF06042994B28463946FEF7DBFC029146
:104960000090974A954B41460E98FEF7D3FC80463F
:104970000391944A944B28463946FEF7CBFC4246B5
:10498000039BFEF720FC914A7A4402EBCB03D3E968
:104990000023FEF718FC054607910198FEF703FF78
:1049A0000C9003912A46079B02990098FEF70BFC96
:1049B000874A7A4402EBCB03D3E900239346019361
:1049C000FEF701FC039B0C9AFEF7FDFB00278846CF
:1049D0003846039B0C9AFEF797FC5A46019BFEF75C
:1049E00093FC029B009AFEF78FFC2A46079BFEF77A
:1049F0008EFC02460020069005986C4DAAF101033A
:104A0000184301D1734D069000200B4604903046A8
:104A10002146FEF77FFC82468B46234630461946E8
:104A2000049AFEF771FC3A464346FEF773FC524681
:104A30005B46FEF7C8FB06468A463A464346214691
:104A40000498FEF767FC04460F4632465346FEF7CD
:104A5000BAFB614A8B46914221DBABEB020353EA7E
:104A6000000210D122463B46FEF74EFC80460391E1
:104A70005A4A5B4B30465146FEF7A5FB4246039B24
:104A8000FEF7BAFE27D20220FEF7FEFFFEF7DCFF9C
:104A90000A46294614B062F31E01BDE8F08D514B61
:104AA0002BF000429A4216D34F4A0BEB020353EA13
:104AB000000208D122463B46FEF726FC324653460A
:104AC000FEF79AFE07D80220FEF7DEFFFEF7C4FFCE
:104AD0000A462946DEE72BF000404449444A01EBF0
:104AE00020514FF00008824223DA481C4FF4801115
:104AF00021FA00F058443F4AC0F30A517A443E4B31
:104B0000A1F2FF31CB4020EA0303C0F3130040F4CD
:104B1000801CC1F1140012682CFA00F8BBF1000FE0
:104B2000B8BFC8F1000820463946FEF7EDFB044641
:104B30000F4622463B4630465146FEF744FB4FF0B7
:104B4000000B5A462D4B58460391FEF7E3FB0091AC
:104B50000A902B4A2B4B58460399FEF7DBFB049136
:104B6000029022463B4658460399FEF7CDFB32465B
:104B70005346FEF7CCFB244A244BFEF7CBFB049BA9
:104B8000029AFEF720FB07468A46009B0A9AFEF728
:104B90001AFB04460E46009B0A9AFEF7B5FB3A46FE
:104BA0005346FEF7B4FB33E0860500000000F03FFB
:104BB000C4050000F40400000000084009C7EE3FEF
:104BC000FD033ADCF5015B14E02F3EBECC03000090
:104BD000920300000000F0BF00009040FE822B65B1
:104BE0004715973C00CC904000346F3F01FCFFFF1D
:104BF0000000E03FC0020000FFFF0F00432EE63F31
:104C0000396CA80C615C20BEEF39FAFE422EE63FFB
:104C10000746224633460F9110461946FEF77AFBA7
:104C2000834602462E488A460B4605217844FEF705
:104C3000A5FE5A465346FEF76DFB22463346FEF765
:104C400066FB82468B463A46204631460F9BFEF76E
:104C500061FB3A460F9BFEF7B6FA0F460A90002218
:104C60004FF0804350465946FEF74EFB03910090AB
:104C700052465B4620463146FEF74CFB039B009AAA
:104C8000FEF7BAFB3B460A9AFEF73EFB2246334646
:104C9000FEF73AFB0022134BFEF739FB0E460446A3
:104CA00001EB08510815002810DC42462046314629
:104CB000FEF762FDFEF74EFE042808BFFEF7CCFEAD
:104CC000424620463146FEF757FD044606980B46FD
:104CD00014B022462946BDE8F04DFEF71BBB00008C
:104CE000680100000000F03F2DE9F04106460F4644
:104CF000FEF7BCFD04000D4618BF0120284320F03C
:104D00000040C0F17F6000F1E040C00F0ED0301CC9
:104D100018BF0120384320F00040C0F17F6000F14F
:104D2000E040C00F04BF0120FEF7AEFE204629463A
:104D3000BDE8F08100000000000000000000F03F2E
:104D4000000000000000F83F00000000000000002C
:104D50000000004003B8E23F000000000000000037
:104D600006D0CF43EBFD4C3E033333333333E33FC5
:104D7000FFAB6FDBB66DDB3F4D268F515555D53FF1
:104D800001411DA96074D13F65DBC9934A86CD3FBF
:104D9000EF4E454A287ECA3F3E5555555555C53FAD
:104DA00093BDBE166CC166BF2CDE25AF6A56113F9F
:104DB000F16BD2C541BDBBBED0A4BE726937663EA1
:104DC0000000000000000000E84D00080000002086
:104DD00048000000683A0008304E000848000020F3
:104DE00068060000783A000800000000000000009B
:104DF00000000000000000000000000001020304A9
:104E000001020304060708090204060800A24A0476
:104E1000000000000000000001020304060708096A
:104E20000000000000000000000000000000000082
:0400000508000131BD
:00000001FF
